:020000040800F2
:1000000078080020010100088F230008A3220008BF
:100010007F230008B7060008312F00080000000009
:10002000000000000000000000000000E1240008C3
:100030000907000800000000B52400088525000815
:100040001B0100081B0100081B0100081B01000820
:100050001B0100081B0100081B0100081B01000810
:100060001B0100081B0100081B010008F90600081D
:100070001B0100081B0100081B0100081B010008F0
:100080001B0100081B0100081B0100081B010008E0
:100090001B0100081B0100081B0100081B010008D0
:1000A0001B0100081B0100081B0100081B010008C0
:1000B0001B0100089D260008AD2600081B01000852
:1000C0001B0100081B0100081B0100081B010008A0
:1000D0001B010008F92E00081B0100081B01000885
:1000E0001B0100081B0100081B010008DFF80CD0F1
:1000F00000F0C0FA00480047C93000087808002026
:100100000648804706480047FEE7FEE7FEE7FEE7B1
:10011000FEE7FEE7FEE7FEE7FEE7FEE70D26000846
:10012000ED000008202A04DB203A21FA02F0002129
:10013000704721FA02F3D040C2F1200291400843F7
:100140001946704740EA01039B0703D009E008C93C
:10015000121F08C0042AFAD203E011F8013B00F88C
:10016000013B521EF9D27047D2B201E000F8012BD8
:10017000491EFBD270470022F6E710B513460A4627
:1001800004461946FFF7F0FF204610BDF0B480EAA0
:100190000102D40F4200B2EB410F02D202460846E0
:1001A00011464A0042D0C30DDDB2C1F3C752AD1AA9
:1001B000202D35DAC1F3160141F4000204B1524298
:1001C000C5F1200602FA06F12A411044B3EBD05FD4
:1001D00023D0C4B1012DA0EBC35009DCF0BC4FF01B
:1001E000004202EAC352DBB200F5000000F0B7B9EA
:1001F000400000F1807000EBC350A0F1807040EA35
:10020000D170490009E0490841EAC071A0EBC35030
:1002100000F50000400800EBC350F0BC00F096B9B8
:100220006142012202EB4101001BF6E7F0BC70477E
:1002300081F00041AAE780F00040A7E780EA0102D0
:1002400010B502F00043400022D04A001FD0010E3A
:1002500001EB1261C0F35600C2F3560240F40000F5
:1002600042F40002A0FB022000047F39140400D0F5
:10027000401C50EA124001D44000491EC2B20C0694
:1002800004EBD010401C4008802A02D003E000207C
:1002900010BD20F00100002900DA0020184310BD35
:1002A00030B480EA010202F0004530F0004221F053
:1002B000004013D090B1C30DD40DC2F31601C0F3AA
:1002C0001600E41A41F4000140F400027D3491422A
:1002D00001D3641C00E04900002C02DA30BC00208D
:1002E00070474FF400000023914201D3891A034361
:1002F00040084FEA4101F7D151B1914202D14FF08C
:10030000004105E002D24FF0010101E06FF0010170
:1003100003EBC450284430BC00F018B92DE9F04D6F
:1003200081EA030404F0004B21F0004514464FF02D
:10033000000A23F0004150EA050220D054EA0102ED
:100340001DD0C5F30A570246C5F31303C1F31300CA
:10035000C1F30A5640F4801543F48013A7EB060856
:10036000101BD64608F2FD3873EB050002D308F1E6
:10037000010801E092185B41B8F1000F03DA002098
:100380000146BDE8F08D00204FF4801106468446FA
:100390000EE0171B73EB050705D3121B63EB050378
:1003A00006434CEA010C49084FEA300092185B41C1
:1003B00050EA0107EDD152EA030012D082EA0400AC
:1003C00083EA0501084305D0101BAB4106D2012288
:1003D000002306E000224FF0004302E06FF001022C
:1003E00053101AEB06004CEB085110EB0A0041EBDE
:1003F0000B01BDE8F04D00F0E0B8C10F80EAE070FD
:100400000844CA079623002100F0A9B896230022C9
:10041000114600F0A4B80EB540F23341029100211C
:10042000CDE900110A460B4600F0D6F803B000BD36
:1004300020F00040C10DC0F3160040F400007F29F9
:1004400001DA00207047962903DCC1F19601C8400B
:10045000704796398840704770B5C1F30A5201F071
:1004600000450024C1F3130140F2FF3341F4801131
:100470009A4201DA002070BD40F233439A42A2F260
:10048000334203DC5242FFF74DFE00E090402C4324
:10049000F1D0404270BD00F0004230F000400AD080
:1004A000C10D01F56071C0F3160042EA0151C208A6
:1004B00040071143704700200146704730B5041EC5
:1004C00071F1000404DB4FF00044404264EB010191
:1004D000141E73F1000405DB1C464FF0004352422A
:1004E00063EB0403994208BF904230BD01F0004322
:1004F00030B421F0004150EA010206D00A0DA2F505
:100500006072C1F31301002A02DC30BC0020704786
:10051000440F44EAC104C100E01830BC00EBC250F3
:1005200000F014B8002801DBC0F10040002901DB15
:10053000C1F1004181427047002801DBC0F1004059
:10054000002901DBC1F10041884270470029A8BFA2
:100550007047401C490008BF20F00100704710B4EC
:10056000B0FA80FC00FA0CF050EA010404BF10BCA1
:10057000704749B1CCF1200421FA04F411FA0CF1CE
:1005800018BF012121430843A3EB0C01CB1D4FEA07
:1005900000614FEA102042BF002010BC704700EB02
:1005A000C35010440029A4BF10BC7047401C490030
:1005B00008BF20F0010010BC704710B5141E73F185
:1005C000000408DA401C41F1000192185B411A4313
:1005D00001D120F0010010BD2DE9F04D92469B465F
:1005E00011B1B1FA81F202E0B0FA80F22032904605
:1005F00000F052F804460F4640EA0A0041EA0B01B7
:1006000053465A46084313D0114653EA010019D005
:10061000C8F140025046FFF785FD05460E4650469C
:100620005946424600F038F8084305D0012004E05E
:1006300020463946BDE8F08D0020054346EAE076C5
:100640002C4337430A986305E40AA0EB0800002214
:10065000FD0A44EA47540A3002D500200146E9E782
:10066000010510196941DDE9084500196941BDE836
:10067000F04DA2E7064C074D06E0E06840F00103AC
:1006800094E8070098471034AC42F6D3FFF732FDE8
:10069000503A0008703A0008202A04DB203A00FA99
:1006A00002F1002070479140C2F1200320FA03F3C9
:1006B00019439040704700BFFEE7000010B50C489A
:1006C0000C4908604FF4E13048600021094881601E
:1006D000C160016181610C21416101F0EDFC0548BF
:1006E0000068C06840F0200002490968C86010BD79
:1006F000003801409802002010B5024800F01AF9B5
:1007000010BD0000240000207047000000B585B037
:100710000020019002900390049000BF1648806969
:1007200040F00800144988610846806900F008001C
:10073000009000BF00BF00BF0846806940F008007D
:1007400088610846806900F00800009000BF00BF83
:10075000002002900120039003200490402001908B
:1007600001A9064800F0B2FA8020019001A90348CF
:1007700000F0ACFA05B000BD00100240000C0140D2
:1007800010B5FFF7C3FF01F0F9FF10BD70B50446C7
:10079000002594F82100022803D00420A06301253D
:1007A000C1E02068006820F00E0021680860206821
:1007B000006820F00100216808605C4920688842D8
:1007C00052D95A4978392068884201D1012047E03E
:1007D000564964392068884201D1102040E05349CD
:1007E00050392068884201D1801539E04F493C39A1
:1007F0002068884201D1801432E04C4928392068B1
:10080000884202D14FF480302AE0484914392068E8
:10081000884202D14FF4801022E044492068884287
:1008200001D140041CE042492068884201D10120E6
:1008300016E03F4914312068884201D110200FE0B2
:100840003B4928312068884201D1801508E03849A9
:100850003C312068884201D1801401E04FF480309F
:100860003349091F086051E03049783920688842CF
:1008700001D1012047E02D4964392068884201D127
:10088000102040E0294950392068884201D1801564
:1008900039E026493C392068884201D1801432E091
:1008A000224928392068884202D14FF480302AE05A
:1008B0001E4914392068884202D14FF4801022E08A
:1008C0001A492068884201D140041CE01849206878
:1008D000884201D1012016E0154914312068884270
:1008E00001D110200FE0124928312068884201D13F
:1008F000801508E00E493C312068884201D18014FF
:1009000001E04FF48030094980394860012084F8C3
:10091000210000BF002084F8200000BF606B10B1F0
:100920002046616B8847284670BD00008000024069
:100930000804024070B50446E06B0568206806684C
:1009400094F84010042088402840002875D006F014
:1009500004000028FAD02068006800F0200028B9C0
:100960002068006820F0040021680860D5492068EC
:10097000884254D9D34978392068884201D104206B
:1009800049E0D04964392068884201D1402042E0E2
:10099000CC4950392068884201D100153BE0C94953
:1009A0003C392068884202D14FF4804033E0C54989
:1009B00028392068884202D14FF480202BE0C149B9
:1009C00014392068884202D14FF4800023E0BD49E9
:1009D0002068884201D1C0041DE0BB4920688842DC
:1009E00001D1042017E0B84914312068884201D1B0
:1009F000402010E0B44928312068884201D1001518
:100A000009E0B1493C312068884202D14FF480406E
:100A100001E04FF48020AC49091F086054E0A94967
:100A200078392068884201D104204AE0A549643918
:100A30002068884202D1402043E04CE0A14950396F
:100A40002068884201D100153BE09E493C3920686E
:100A5000884202D14FF4804033E09A492839206817
:100A6000884202D14FF480202BE096491439206847
:100A7000884202D14FF4800023E0924920688842E6
:100A800001D1C0041DE090492068884201D10420B2
:100A900017E08D4914312068884201D1402010E0D0
:100AA000894928312068884201D1001509E086492A
:100AB0003C312068884202D14FF4804001E04FF47D
:100AC0008020804980394860E06A002802D02046B2
:100AD000E16A8847F4E094F84010022088402840FA
:100AE000002871D006F002000028FAD020680068C3
:100AF00000F0200040B92068006820F00A0021685A
:100B00000860012084F821006E492068884254D989
:100B10006C4978392068884201D1022049E069494E
:100B200064392068884201D1202042E0654950396B
:100B30002068884201D140153BE062493C39206879
:100B4000884202D14FF4005033E05E4928392068D2
:100B5000884202D14FF400302BE05A491439206802
:100B6000884202D14FF4001023E0564920688842A1
:100B700001D180041DE054492068884201D102203F
:100B800017E0514914312068884201D1202010E03B
:100B90004D4928312068884201D1401509E04A4971
:100BA0003C312068884202D14FF4005001E04FF4FC
:100BB00000304549091F086054E0424978392068EF
:100BC000884202D102204AE057E03E496439206859
:100BD000884201D1202042E03A49503920688842B9
:100BE00001D140153BE037493C392068884202D1A9
:100BF0004FF4005033E0334928392068884202D14D
:100C00004FF400302BE02F4914392068884202D17C
:100C10004FF4001023E02B492068884201D1800462
:100C20001DE029492068884201D1022017E02649A9
:100C300014312068884201D1202010E02249283157
:100C40002068884201D1401509E01F493C312068E5
:100C5000884202D14FF4005001E04FF400301949AE
:100C60008039486000BF002084F8200000BFA06ADF
:100C700030B32046A16A884722E094F8401008204B
:100C800088402840E0B106F00800C8B1206800683C
:100C900020F00E002168086094F840100120884080
:100CA000E16B48600120A06384F8210000BF0020B0
:100CB00084F8200000BF206B10B12046216B8847CC
:100CC00070BD000080000240080402402DE9F84792
:100CD000024600239C467BE14FF0010808FA03F42A
:100CE000D1F8008008EA0400A0427DD1DFF8F4A228
:100CF000D1F80480A8EB0A09D0453AD014DCB8F149
:100D0000030F50D009DCB8F1000F31D0B8F1010F5A
:100D10001CD0B8F1020F49D120E0B8F1110F18D062
:100D2000B8F1120F42D11EE0B9F5881F25D006DCBC
:100D3000B9F5803F20D0B9F5801F37D11AE0B9F559
:100D4000001F18D0B9F5041F30D117E0D1F80CC03E
:100D50002DE0D1F80C8008F1040C28E0D1F80C80CB
:100D600008F1080C23E0D1F80C8008F10C0C1EE00F
:100D700000BF00BF00BF00BF00BF00BFD1F80880A8
:100D8000B8F1000F02D14FF0040C0BE0D1F808804D
:100D9000B8F1010F03D14FF0080C146102E04FF0DD
:100DA000080C546103E04FF0000C00E000BF00BFEE
:100DB000FF2801D8904601E002F104084646FF28CA
:100DC00002D84FEA830803E0A3F108084FEA880835
:100DD0004746D6F800804FF00F0909FA07F928EACC
:100DE00009080CFA07F900E07AE048EA0908C6F8B1
:100DF0000080D1F8048008F08058B8F1805F6FD18E
:100E000000BFDFF8E481D8F8188048F00108DFF867
:100E1000D891C9F81880C846D8F8188008F0010899
:100E2000CDF8008000BF00BF4FEAB9384FEA930900
:100E300058F829504FEA83784FEA18794FF00F0895
:100E400008FA09F825EA0805DFF8A081424502D131
:100E50004FF0000824E0DFF89881424502D14FF0BE
:100E600001081DE0DFF88C81424502D14FF00208F5
:100E700016E0DFF88481424502D14FF003080FE00D
:100E8000DFF87881424502D14FF0040808E0DFF82E
:100E90007081424502D14FF0050801E04FF006088D
:100EA0004FEA83794FEA197908FA09F848EA050503
:100EB000DFF850814FEA930948F82950D1F80480AF
:100EC00008F48038B8F5803F0BD1DFF83C81D8F8C2
:100ED000008048EA0008DFF83091C9F800800AE095
:100EE00075E0DFF82481D8F8008028EA0008DFF8F0
:100EF0001891C9F80080D1F8048008F40038B8F5DA
:100F0000003F0ED1DFF8008108F10408D8F8008016
:100F100048EA0008DFF8F09009F10409C9F80080F8
:100F20000DE0DFF8E48008F10408D8F8008028EA32
:100F30000008DFF8D49009F10409C9F80080D1F85D
:100F4000048008F48018B8F5801F0ED1DFF8B8804F
:100F500008F10808D8F8008048EA0008DFF8A890EF
:100F600009F10809C9F800800DE0DFF89C8008F15C
:100F70000808D8F8008028EA0008DFF88C9009F10A
:100F80000809C9F80080D1F8048008F40018B8F501
:100F9000001F0ED1DFF8708008F10C08D8F800802F
:100FA00048EA0008DFF8609009F10C09C9F80080F0
:100FB0000DE0DFF8548008F10C08D8F8008028EA2A
:100FC0000008DFF8449009F10C09C9F800805B1CA7
:100FD000D1F8008028FA03F8B8F1000F7FF47CAE56
:100FE000BDE8F88700001110001002400008014021
:100FF000000C0140001001400014014000180140A5
:10100000001C0140080001400004014002469368B2
:101010000B400BB1012000E0002070470AB10161D4
:1010200001E00B040361704701480068704700004D
:101030000400002003480068034909780844014976
:1010400008607047040000200C00002010B508481C
:10105000006840F0100006490860032000F080F8A6
:10106000002000F007F800F02BF8002010BD000071
:101070000020024070B504460E4800784FF47A71A3
:10108000B1FBF0F00C490968B1FBF0F5284600F01F
:101090009EFC08B1012070BD102C07D20022214611
:1010A000501E00F01EF80548046001E00120F2E740
:1010B0000020F0E70C0000200000002008000020C5
:1010C000704701460846002809DB00F01F03012293
:1010D0009A4043099B0003F1E023C3F8002100BFBD
:1010E00070472DE9F05F80460D461646002701F057
:1010F00083FF074639462A46334601F00700C0F110
:10110000070ABAF1040F02D94FF0040A01E0C0F156
:10111000070AD14600F1040ABAF1070F02D24FF0D4
:10112000000A01E0A0F1030AD4464FF0010A0AFACE
:1011300009FAAAF1010A0AEA020A0AFA0CFA4FF0BD
:10114000010B0BFA0CFBABF1010B0BEA030B4AEAA8
:101150000B042146404601F057FFBDE8F09F000018
:1011600000BF00F00702064B19684FF6FF03194055
:10117000044B0B4343EA0221014B196000BF704747
:101180000CED00E00000FA0500BF00BF00BF00BF8B
:1011900000BFBFF34F8F00BF00BF00BF094800680A
:1011A00000F4E06008490843001D0649086000BFDC
:1011B00000BF00BFBFF34F8F00BF00BF00BF00BF25
:1011C00000BFFDE70CED00E00000FA05F8B50446AD
:1011D00000260025207800F0010000286BD00027B1
:1011E0004348C06900F0805070B900BF4048C069F2
:1011F00040F080503E49C8610846C06900F0805008
:10120000009000BF00BF01273A48006800F48070DA
:10121000B0B93848006840F4807036490860FFF77C
:1012200003FF064606E0FFF7FFFE801B642801D996
:101230000320F8BD2F48006800F480700028F2D029
:101240002B48006A00F440752DB3A08800F440706C
:10125000A84220D02648006A20F440750120264983
:101260000860002008602248056205F0010090B186
:10127000FFF7DAFE064608E0FFF7D6FE801B41F2D4
:101280008831884201D90320D3E71948006A00F069
:1012900002000028F0D01648006A20F4407061680F
:1012A000084313490862012F04D10846C06920F0A1
:1012B0008050C86100BF207800F00200022807D1EA
:1012C0000B48406820F44040A16808430849486042
:1012D000207800F01000102807D10548406820F45D
:1012E000800061690843024948600020A1E70000CE
:1012F00000100240007000404004424270B50446B5
:101300000D460CB9012070BD5A48006800F0070076
:10131000A8420ED25748006820F0070028435549DC
:1013200008600846006800F00700A84201D00120CC
:10133000E9E7207800F0020002281DD1207800F0B3
:101340000400042805D14C48406840F4E0604A4954
:101350004860207800F00800082805D14648406819
:1013600040F46050444948604348406820F0F00031
:10137000A168084340494860207800F0010078B334
:101380006068012806D13C48006800F4003090B93C
:101390000120B8E76068022806D13748006800F0ED
:1013A000007040B90120AEE73348006800F0020049
:1013B00008B90120A7E73048406820F003006168C1
:1013C00008432D494860FFF72FFE064609E0FFF766
:1013D0002BFE801B41F28831884202D9032092E71C
:1013E00007E02548406800F00C006168B0EB810F11
:1013F000EDD12048006800F00700A8420ED91D4832
:10140000006820F0070028431A4908600846006871
:1014100000F00700A84201D0012074E7207800F016
:101420000400042807D11448406820F4E060E16813
:10143000084311494860207800F00800082808D1C6
:101440000D48406820F46050216940EAC1000A4913
:10145000486000F03FF808494968C1F30311074AA2
:10146000515CC8400649086006480068FFF702FE64
:10147000002048E70020024000100240383A0008EF
:1014800000000020080000200148006870470000AC
:101490000000002000B5FFF7F7FF04494968C1F3D9
:1014A0000221034A515CC84000BD00000010024008
:1014B000483A000800B5FFF7E7FF04494968C1F35F
:1014C000C221034A515CC84000BD00000010024028
:1014D000483A0008F0B585B00FF26C0C9CE8E010BB
:1014E00001A8A0E8E0101CA52D68009500210022AD
:1014F000002300240020194D696801F00C05F5B1A6
:10150000042D02D0082D19D101E0154819E001ADD4
:10151000C1F38346AC5D01F4803555B10F4D6D6864
:10152000C5F340451DF805200D4D6543B5FBF2F3AD
:1015300002E00C4D04FB05F3184602E000BF08482A
:1015400000BF00BF05B0F0BD02030405060708098F
:101550000A0B0C0D0E0F10100102000000100240CB
:1015600000127A0000093D00F8B504460CB90120CC
:10157000F8BD207800F00100002878D0F8484068D5
:1015800000F00C0004280CD0F548406800F00C0076
:10159000082811D1F248406800F48030B0F5803F4F
:1015A0000AD1EF48006800F4003000285FD060687E
:1015B00000285CD10120DBE700BF6068B0F5803F08
:1015C00006D1E748006840F48030E549086028E02B
:1015D000606858B9E248006820F48030E04908604B
:1015E0000846006820F4802008601AE06068B0F5C2
:1015F000A02F0BD1DA48006840F48020D849086059
:101600000846006840F4803008600AE0D44800686A
:1016100020F48030D24908600846006820F4802019
:10162000086000BF606888B1FFF7FEFC054606E071
:10163000FFF7FAFC401B642801D9032098E7C8484B
:10164000006800F400300028F2D010E0FFF7ECFC56
:10165000054606E0FFF7E8FC401B642801D903209B
:1016600086E7BF48006800F400300028F2D12078F7
:1016700000F00200022857D1B948406800F00C0081
:1016800050B1B748406800F00C00082818D1B448A1
:10169000406800F4803098B9B148006800F002005A
:1016A00020B12069012801D0012061E7AC48006821
:1016B00020F0F800616940EAC100A949086033E000
:1016C0002069E8B10120A7490860FFF7ADFC054695
:1016D00006E0FFF7A9FC401B022801D9032047E7D9
:1016E0009F48006800F002000028F2D09C48006883
:1016F00020F0F800616940EAC1009949086013E0F0
:10170000002098490860FFF78FFC054606E0FFF7C8
:101710008BFC401B022801D9032029E79048006870
:1017200000F002000028F2D1207800F0080008281C
:101730002DD1A069B8B101208B490860FFF774FC76
:10174000054606E0FFF770FC401B022801D9032084
:101750000EE78348406A00F002000028F2D0012022
:1017600000F0AAFE13E000207F490860FFF75CFC50
:10177000054606E0FFF758FC401B022801D903206C
:10178000F6E67748406A00F002000028F2D120789F
:1017900000F00400042873D100277148C06900F0EC
:1017A000805070B900BF6E48C06940F080506C49ED
:1017B000C8610846C06900F08050009000BF00BFBB
:1017C00001276A48006800F48070B0B96748006873
:1017D00040F4807065490860FFF726FC054606E086
:1017E000FFF722FC401B642801D90320C0E65F48B4
:1017F000006800F480700028F2D000BFE068012883
:1018000006D15748006A40F001005549086227E0B8
:10181000E06858B95248006A20F001005049086257
:101820000846006A20F00400086219E0E068052814
:101830000BD14B48006A40F0040049490862084651
:10184000006A40F0010008620AE04548006A20F0A2
:101850000100434908620846006A20F0040008625B
:1018600000BFE068A0B1FFF7DFFB054609E0FFF726
:10187000DBFB401B41F28831884202D9032077E626
:1018800022E03748006A00F002000028EFD012E0A2
:10189000FFF7CAFB054608E0FFF7C6FB401B41F215
:1018A0008831884201D9032062E62D48006A00F0A1
:1018B00002000028F0D1012F05D12948C06920F08D
:1018C00080502749C86100BFE069C8B32448406818
:1018D00000F00C00082860D0E069022848D1002000
:1018E00020490866FFF7A0FB054606E0FFF79CFBD2
:1018F000401B022801D903203AE61948006800F08D
:1019000000700028F2D1206AB0F5803F07D114485A
:10191000406820F40030A168084311494860D4E9C8
:10192000080108430E49496821F4741108430C4921
:10193000486001200B490866FFF776FB054607E083
:101940003DE0FFF771FB401B022801D903200FE6A1
:101950000348006800F000700028F2D02FE000007B
:1019600000100240000042428004424200700040E9
:10197000002014490866FFF757FB054606E0FFF70D
:1019800053FB401B022801D90320F1E50E480068F3
:1019900000F000700028F2D111E0E069012800D1C8
:1019A000E6E50948466806F48031206A814204D1A0
:1019B00006F47011606A814201D00120D8E5002050
:1019C000D6E500000000424200100240704770B5AA
:1019D00004462546681EB0F1807F01D301200FE048
:1019E000681E4FF0E02148610F214FF0FF3001F0F9
:1019F0000BFB00204FF0E0218861072008610020E8
:101A000070BD7047704710B504460CB9012010BD79
:101A100094F83D0028B9002084F83C00204600F0EE
:101A20000CF8022084F83D00211D206800F046FEDD
:101A3000012084F83D000020E9E77047014608686E
:101A4000C06840F001000B68D8600868806800F04A
:101A50000702062A05D00868006840F001000B68FC
:101A60001860002070472DE9F04104460D4614B976
:101A70000120BDE8F08194F83D0028B9002084F8E9
:101A80003C00204600F044F8022084F83D00206825
:101A9000806844F20701884321688860211D20681E
:101AA00000F00CFE2068D0F8088020688669206865
:101AB000076A286840EA080840F203308643A969AB
:101AC000A86840EA0120064340F60C4086434FF2E6
:101AD000F0008643E969E86840EA01200643286986
:101AE0000001296A40EA0130064327F022076969AC
:101AF000686840EA011007432068C0F80880206841
:101B0000866120680762012084F83D000020B0E76C
:101B1000704730B504460D4615B1042D0CD105E0D3
:101B200001220021206800F017FE10E001220421AC
:101B3000206800F011FE0AE001220021206800F078
:101B40000BFE01220421206800F006FE00BF00BF4A
:101B50002068006840F0010021680860002030BD66
:101B6000704710B5044620680069C0F34000D8B142
:101B70002068C068C0F34000B0B16FF00200216877
:101B80000861012020772068806900F0030018B107
:101B90002046FFF7E5FF05E0204600F0ADF82046BF
:101BA00000F04AF90020207720680069C0F3800027
:101BB000D8B12068C068C0F38000B0B16FF00400F5
:101BC00021680861022020772068806900F4407055
:101BD00018B12046FFF7C4FF05E0204600F08CF85E
:101BE000204600F029F90020207720680069C0F322
:101BF000C000D8B12068C068C0F3C000B0B16FF0B9
:101C0000080021680861042020772068C06900F07E
:101C1000030018B12046FFF7A3FF05E0204600F0BF
:101C20006BF8204600F008F9002020772068006952
:101C3000C0F30010D8B12068C068C0F30010B0B184
:101C40006FF0100021680861082020772068C069C3
:101C500000F4407018B12046FFF782FF05E02046EF
:101C600000F04AF8204600F0E7F8002020772068CE
:101C7000006900F0010058B12068C06800F0010060
:101C800030B16FF0010021680861204600F046F98C
:101C900020680069C0F3C01058B12068C068C0F364
:101CA000C01030B16FF08000216808612046FFF756
:101CB000A8FE20680069C0F3801058B12068C06891
:101CC000C0F3801030B16FF04000216808612046F9
:101CD00000F04AF920680069C0F3401058B120684C
:101CE000C068C0F3401030B16FF020002168086177
:101CF0002046FFF787FE10BD704770B504460D46BD
:101D0000164600BF94F83C00012801D1022070BDA6
:101D1000012084F83C0000BF022084F83D0036B169
:101D2000042E1BD0082E31D00C2E5ED145E0294662
:101D3000206800F0ABFD2068806940F00800216851
:101D400088612068806920F004002168886120682B
:101D50008069296908432168886147E0294620682D
:101D600000F0CCFD2068806940F400602168886143
:101D70002068806920F4806021688861206880691B
:101D8000296940EA0120216888612FE029462068FE
:101D900000F0F2FD2068C06940F008002168C861C9
:101DA0002068C06920F004002168C8612068C0690B
:101DB000296908432168C86118E02946206800F0B5
:101DC00017FE2068C06940F400602168C86120687F
:101DD000C06920F480602168C8612068C0692969F1
:101DE00040EA01202168C86100E000BF00BF012077
:101DF00084F83D0000BF002084F83C0000BF00BF15
:101E000085E710B504460CB9012010BD94F83D00DB
:101E100028B9002084F83C00204600F00CF802208D
:101E200084F83D00211D206800F048FC012084F862
:101E30003D000020E9E770477047000070B5044698
:101E40000E4601223146206800F086FC0F492068CA
:101E5000884203D00E492068884201D1012000E069
:101E6000002028B12068406C40F40040216848649C
:101E70002068806800F00705062D05D020680068FE
:101E800040F0010021680860002070BD002C014076
:101E90000034014030B504460D4600222946206832
:101EA00000F05AFC1B492068884203D01A49206878
:101EB000884201D1012000E0002090B100BF2068DD
:101EC000006A41F21111084050B92068006A891077
:101ED000084028B92068406C20F40040216848641C
:101EE00000BF00BF2068006A41F21111084050B9DC
:101EF0002068006A8910084028B92068006820F02E
:101F000001002168086000BF012084F83D00002026
:101F100030BD0000002C01400034014010B50446E3
:101F20000E48844213D10068006800F010001028A9
:101F300006D10B480088401E00B2094908800BE01A
:101F400007480088401C00B20549088004E00548A5
:101F5000844201D101F022F910BD00005803002095
:101F600020000020D8020020704770472DE9F0477C
:101F70000446206805682068C668206847694FF0F5
:101F80000008C14605F00F08B8F1000F0AD105F0AE
:101F9000200038B106F0200020B1204600F01EFEDF
:101FA000BDE8F087B8F1000F6DD007F0010018B957
:101FB00006F49070002866D005F0010030B106F4F8
:101FC000807018B1E06B40F00100E06305F00400A0
:101FD00030B107F0010018B1E06B40F00200E0639F
:101FE00005F0020030B107F0010018B1E06B40F0DD
:101FF0000400E06305F0080030B107F0010018B1FB
:10200000E06B40F00800E063E06B68B305F020008F
:1020100028B106F0200010B1204600F0DFFD206856
:102020004069C0F38019E06B00F0080010B9B9F105
:10203000000F22D0204600F0B1FD2068406900F07A
:102040004000B0B12068406920F04000216848613C
:10205000606B50B11748616B4863606BFEF796FB8D
:1020600010B1606B416B88470CE02046FFF77DFFA5
:1020700008E02046FFF779FF04E02046FFF775FFF0
:102080000020E0638CE705F0800030B106F08000AE
:1020900018B1204600F0C6FE82E705F0400030B1DE
:1020A00006F0400018B1204600F088FD78E700BF38
:1020B00076E70000892B000810B504460CB9012012
:1020C00010BDA06900B100E000BF94F8390028B944
:1020D000002084F83800204600F028F8242084F8F6
:1020E00039002068C06820F400502168C86020468C
:1020F00000F0C8FD2068006920F490402168086164
:102100002068406920F02A00216848612068C06882
:1021100040F400502168C8600020E063202084F86B
:10212000390084F83A000020CAE7000010B586B0F4
:10213000044600BF2248806940F4804020498861FD
:102140000846806900F48040019000BF00BF00BFD6
:102150000846806940F0040088610846806900F004
:102160000400019000BF00BF00BF0846806940F036
:10217000040088610846806900F00400019000BFF7
:1021800000BF481502900220039001200490032014
:10219000059002A90B48FEF799FD4FF4806002906C
:1021A0000020039002A90748FEF790FD01220021BC
:1021B0002520FEF796FF2520FEF783FF06B010BD11
:1021C000001002400008014070472DE9F843044622
:1021D0000D4616461F464FF0000994F83900202896
:1021E0005CD105B116B90120BDE8F88300BF94F8B1
:1021F0003800012801D10220F6E7012084F83800D8
:1022000000BF0020E063212084F83900FEF70CFFB6
:102210008146A684E6842BE0E08C401EE084A06822
:10222000B0F5805F16D14B460022802120460097F2
:1022300000F02CFE08B10320D6E7A846B8F800004D
:10224000C0F3080021684860206908B9AD1C0FE0A0
:102250006D1C0DE04B46002280212046009700F0C7
:1022600015FE08B10320BFE715F8010B216848608F
:10227000E08C0028D0D14B46002240212046009718
:1022800000F004FE08B10320AEE7202084F83900F6
:1022900000BF002084F8380000BFA5E70220A3E7B4
:1022A000704700BFFEE7000000B585B000BF2848BA
:1022B000806940F00400264988610846806900F082
:1022C0000400009000BF00BF00BF0846806940F0D6
:1022D000040088610846806900F00400009000BF97
:1022E00000BF00BF0846806940F0040088610846CE
:1022F000806900F00400009000BF00BF00BF0846E6
:10230000806940F0040088610846806900F004009C
:10231000009000BF00BF00200290012003900190B8
:1023200001A90C48FEF7D2FC0220019001A909483E
:10233000FEF7CCFC0820019001A90648FEF7C6FC78
:102340001020019001A90348FEF7C0FC05B000BDB4
:10235000001002400008014070B504460D462946B1
:102360002046FEF753FE40B900BF29462046FEF73F
:102370004DFE0028F9D0002070BD0120FCE700BF11
:10238000FEE710B500F0C2FB00F05CFB10BD70472B
:1023900030B587B03B483C49086000208860086140
:1023A00008628861394888620020C862384808633A
:1023B000384848600020C86048614862C8613648B3
:1023C0004863364888630020C86355200864344C4D
:1023D00000E0641E002CFCD12B49886A3149FDF7CE
:1023E0002DFF0546FEF724F804902749C86A2D49B9
:1023F000FDF724FF0546FEF71BF805902249086B00
:102400002849FDF71BFF0546FEF712F80690032347
:1024100004AA0121184601F03FFA214C00E0641E95
:10242000002CFCD11849486B1E49FDF707FF0546F3
:10243000FDF7FEFF01901449886B1A49FDF7FEFE77
:102440000546FDF7F5FF02900F49C86B1549FDF7EA
:10245000F5FE0546FDF7ECFF0390032301AA0121D9
:10246000082001F019FA0E4C00E0641E002CFCD18B
:102470000123054A40321946072001F00DFA07B042
:1024800030BD00000000C344980300206666A640EB
:102490000000A0400000C8420000C04000002040F2
:1024A000A08601000000204170B505460C46284674
:1024B000A04770BD7047000008B508490968C90801
:1024C0004FF47A72B1FBF2F14143009100BF00BFBB
:1024D00000994A1E00920029F9D108BD0000002091
:1024E000704700002DE9F047044625484168204622
:1024F000FDF7A1FE224948610846C1694FF08040BE
:10250000FDF79CFE82461E4841695046FDF793FE4A
:1025100081461B48416A4846FDF738FE8046184808
:10252000C16B4046FDF78AFE0646154A5169906B1D
:10253000FDF784FE8146124AD1695069FDF778FEA5
:1025400082460F48416B5046FDF778FE804649466B
:10255000FDF71CFE07463146FDF718FE0546084804
:10256000C1682846FDF712FE0549C8600846C069E3
:10257000486208464069C8610846C068BDE8F087FF
:102580009803002010B5FEF755FDFFF71FFA10BDA8
:1025900000B595B0142110A8FDF7EDFD282106A87F
:1025A000FDF7E9FD18216846FDF7E5FD01200690DD
:1025B000000407900020089002200D90C1030E91A6
:1025C0004FF4E0110F9106A8FEF7CEFF08B100BF4F
:1025D000FEE70F201090022011900020129014901E
:1025E0004FF480601390022110A8FEF787FE08B117
:1025F00000BFFEE702200090800302906846FEF7CD
:10260000E5FD08B100BFFEE715B000BD1148006848
:1026100040F001000F490860084640680E49084034
:102620000C494860084600680C49084009490860A0
:102630000846006820F4802008600846406820F4BE
:10264000FE0048604FF41F008860C803044908601A
:1026500070470000001002400000FFF8FFFFF6FE88
:1026600008ED00E030B1042808D008280AD00C2872
:1026700010D10BE0084A126851630BE0064A126859
:10268000916307E0044A1268D16303E0024A1268CA
:10269000116400BF00BF70471803002010B5024846
:1026A000FFF75FFA10BD0000D802002010B5024805
:1026B000FFF757FA10BD00005803002010B502685C
:1026C000204B98420ED0204B98420BD0B0F1804F57
:1026D00008D01E4B984205D01D4B984202D01D4B8E
:1026E000984203D122F070024B681A43154B98426E
:1026F0000ED0154B98420BD0B0F1804F08D0134B41
:10270000984205D0124B984202D0124B984203D106
:1027100022F44072CB681A4322F080034C6943EAEA
:10272000040202608B68C3620B688362054B9842A7
:1027300002D0054B984201D10B6903630123436129
:1027400010BD0000002C0140003401400004004096
:1027500000080040000C004030B501F01F050124C6
:1027600004FA05F3046A9C430462046A01F01F053D
:1027700002FA05F52C43046230BD000000B58BB0B1
:1027800000BF2A48C06940F004002849C8610846D3
:10279000C06900F00400019000BF00BF2448254933
:1027A0000860002048600021224881604FF6FF71D8
:1027B000C16000210161816103200290002003902B
:1027C00001200490002005900690079001200890B9
:1027D000002009900A9002A91648FFF744F900204A
:1027E000144909684862801E124909680861114845
:1027F0000068C06840F001000E490968C8600D48D3
:102800000068006840F004000A4909680860002276
:1028100001211E20FEF765FC1E20FEF752FC3C2124
:102820000448FFF776F90BB000BD0000001002402D
:10283000000800405803002008B500BF1048C069D8
:1028400040F002000E49C8610846C06900F002006D
:10285000009000BF00BF0B480B49086042F20F71A7
:102860000948C16040F2CF2007494860002106486E
:1028700081600161FFF7C7F80348FFF7DFF808BD83
:102880000010024000040040D802002030B5056A64
:1028900025F001050562026A4368846924F070042A
:1028A00024F003040D682C4322F002028D682A43B1
:1028B000104DA84200D103E00F4DA84206D100BF41
:1028C00022F00802CD682A4322F00402094DA842F2
:1028D00002D0094DA84207D123F4807323F400737A
:1028E0004D692B438D692B43436084614D6845637B
:1028F000026230BD002C01400034014030B5056A51
:1029000025F010050562026A4368846924F4E044F6
:1029100024F440740D6844EA052422F020028D68F6
:1029200042EA0512124DA84200D103E0114DA8421F
:1029300007D100BF22F08002CD6842EA051222F0E2
:1029400040020B4DA84202D00A4DA84209D123F4FF
:10295000806323F400634D6943EA85038D6943EA8C
:102960008503436084614D688563026230BD000069
:10297000002C01400034014030B5056A25F4807513
:102980000562026A4368C46924F0700424F00304F9
:102990000D682C4322F400728D6842EA0522124D24
:1029A000A84200D103E0114DA84207D100BF22F494
:1029B0000062CD6842EA052222F480620A4DA842F4
:1029C00002D00A4DA84209D123F4805323F40053C6
:1029D0004D6943EA05138D6943EA05134360C461F9
:1029E0004D68C563026230BD002C014000340140D7
:1029F00030B5056A25F480550562036A4468C269EA
:102A000022F4E04222F440720D6842EA052223F4E7
:102A100000538D6843EA0533084DA84202D0084DA3
:102A2000A84204D124F480444D6944EA85144460EA
:102A3000C2614D680564036230BD0000002C014096
:102A40000034014000B589B000BF1E48806940F4E1
:102A500000601C4988610846806900F400600190AC
:102A600000BF00BF18481949086040F60F611748B9
:102A7000C16001201549486000211448816001614E
:102A8000FFF7BFF9602002900020039004900590AA
:102A9000079008900690002202A90C48FFF72DF934
:102AA00000210A48FFF7CAF94FF4FA7003900C228C
:102AB00002A90648FFF721F90C210448FFF7BEF9E7
:102AC00009B000BD00100240002C01401803002096
:102AD00038B500F04FF8FFF7AFFE0A490968C96A38
:102AE000481CFDF793FC05460749FDF7D9FB044652
:102AF000FDF79EFC009001236A461946062000F06F
:102B0000CBFE38BDD80200200000C84200B585B019
:102B100000BF1648806940F00400144988610846E7
:102B2000806900F00400009000BF00BF00BF0846AD
:102B3000806940F0040088610846806900F0040064
:102B4000009000BF00BF022002900320049088156F
:102B5000019001A90648FEF7B9F84FF40060019012
:102B600001A90348FEF7B2F805B000BD001002400D
:102B70000008014010B5012211461D20FEF7B1FAF0
:102B80001D20FEF79EFA10BD70B505466C6A002048
:102B9000E085E0842046FFF7E8F970BD0168C96868
:102BA00021F490710268D1600168496921F0010146
:102BB00002685161202180F83A10704710B5044630
:102BC0002068C06820F040002168C860202084F898
:102BD00039002046FFF764FB002010BD70B50446A5
:102BE00094F83A0022284AD1A068B0F5805F13D14A
:102BF000A56A206940B920684068C0F308002880B1
:102C0000A06A801CA06219E020684068C0B22880D9
:102C1000A06A401CA06211E0206938B920684068B1
:102C2000C1B2A26A501CA062117007E0206840681F
:102C300000F07F01A26A501CA0621170E08D401E5E
:102C400080B2E085C8B92068C06820F02000216803
:102C5000C8602068C06820F480702168C86020685F
:102C6000406920F0010021684861202084F83A0082
:102C70002046FFF7A9FA002070BD0020FCE70220E3
:102C8000FAE7000070B504462168096921F4405153
:102C9000E2681143226811612269A16811436269E7
:102CA00041EA02052168C96841F20C629143294357
:102CB0002268D1602168496921F44071A2691143F9
:102CC00022685161564A2168914254D1FEF7F2FBC5
:102CD00000EBC00101EB001162689200B1FBF2F160
:102CE00000EBC00202EB001263689B00B2FBF3F240
:102CF0006423B2FBF3F202EBC20303EB0212A1EB7B
:102D00008201322202EB01116422B1FBF2F101F0E7
:102D1000F00100EBC00202EB001263689B00B2FB03
:102D2000F3F26423B2FBF3F201EB021200EBC001F9
:102D300001EB001163689B00B1FBF3F100EBC003F2
:102D400003EB00136668B600B3FBF6F36426B3FB2F
:102D5000F6F303EBC30606EB0313A1EB8301322367
:102D600003EB01116423B1FBF3F101F00F011144F6
:102D70002268916053E0FEF78DFB00EBC00101EB90
:102D8000001162689200B1FBF2F100EBC00202EBAD
:102D9000001263689B00B2FBF3F26423B2FBF3F210
:102DA00002EBC20303EB0212A1EB8201322202EB1F
:102DB00001116422B1FBF2F101F0F00100EBC0025D
:102DC00002EB001263689B00B2FBF3F26423B2FBD8
:102DD000F3F201EB021200EBC00101EB001163689A
:102DE0009B00B1FBF3F100EBC00303EB001366683B
:102DF000B600B3FBF6F36426B3FBF6F303EBC306AE
:102E000006EB0313A1EB8301322303EB01116423CF
:102E1000B1FBF3F101F00F0111442268916070BD24
:102E200000380140014691F8390021282CD18868EA
:102E3000B0F5805F0FD10A6A1088C0F308000B68F4
:102E40005860086918B9086A801C086209E0086AB5
:102E5000401C086205E00B6A581C086218780B6871
:102E60005860C88C401E80B2C88458B90868C068D1
:102E700020F080000B68D8600868C06840F040000F
:102E80000B68D860002070470220FCE72DE9F04174
:102E900004460D4617469846069E21E0701CF8B180
:102EA0002EB1FEF7C1F8A0EB0800B04218D9206897
:102EB000C06820F4D0702168C8602068406920F0A4
:102EC000010021684861202084F8390084F83A0024
:102ED00000BF002084F8380000BF0320BDE8F08167
:102EE000206800682840A84201D1012000E00020AD
:102EF000B842D3D00020F1E710B50A480068006856
:102F000000F0080008490870064800684068074952
:102F100008700121054800F019FA0248FFF726F869
:102F200010BD0000980200200E0000200D000020BF
:102F300000BFFEE72DE9F04704462C480168204613
:102F4000FDF779F92949086108692949FDF7F4FA7B
:102F500008D2264908692749FDF7E4FA02D2002081
:102F600022490861214881694FF08040FDF766F9E8
:102F700082461E4801695046FDF75DF981461B48AF
:102F8000016A4846FDF702F980461848016B404641
:102F9000FDF754F90646154A1169D06AFDF74EF956
:102FA0008146124A91691069FDF742F982460F483D
:102FB000816A5046FDF742F980464946FDF7E6F83A
:102FC00007463146FDF7E2F805460848816828467D
:102FD000FDF7DCF805498860084680690862084604
:102FE0000069886108468068BDE8F0879803002082
:102FF0000000A0C00000A04002480068C0F302200A
:10300000704700000CED00E010B5002804DB0A0753
:10301000130E054A135406E00A07140E034A00F083
:103020000F031B1FD45410BD00E400E018ED00E0B6
:1030300002E008C8121F08C1002AFAD17047704781
:10304000002001E001C1121F002AFBD1704730B5FA
:103050000346184603E00C780444E0B2491C141EF1
:10306000A2F10105EAB2F6D130BD10B503460C4617
:10307000A018411EC81701EB5060C011A1EBC01091
:10308000185C10BD0246481D00F07F00135C881DCF
:1030900000F07F00105C43EA0023C81D00F07F00B1
:1030A000105C43EA004301F1080000F07F00105C6F
:1030B00043EA006080B27047024601F1090000F067
:1030C0007F00105C704700001CB54FF4C360019096
:1030D000FDF7BCFFFFF75CFA00BF2A48806940F0AB
:1030E0000100284988610846806900F001000090CD
:1030F00000BF00BFFFF7D8F800F022FAFDF7DEFAB4
:1031000000F046F8FDF73CFBFFF7E2FCFFF740F963
:103110001D4C00E0641E002CFCD100231A46012146
:10312000052000F0B9FB184C00E0641E002CFCD117
:10313000012301AA1946184600F0AEFB21E000F079
:103140000DFA01211148FFF707F968B900231A4663
:103150000121042000F0A0FB0198FDF74EF905467F
:1031600000F05AFC00F00EFC02210848FFF7F4F8CA
:1031700038B900F0EFFB00231A460121052000F0CA
:103180008BFBDCE700100240A08601000008014034
:1031900010B5FFF7F6F800F05FFB10BD2DE9F04F1A
:1031A00089B05A48007801287AD14FF0000A0020EF
:1031B000079057480068406A5649B1F90010C1EBC2
:1031C000014108445449086054490968C96A481CC7
:1031D000FDF71CF952490190FDF762F88346FDF7AF
:1031E0005AF900224F4BCDE90201FDF797F88046CE
:1031F00000224D4BFDF792F8CDE9040146490968DC
:103200004A4A1268881AFDF7F8F883464849FDF7DC
:1032100047F881464749FDF743F88046FDF73BF9FB
:103220000646DDE90423FDF779F80446FDF714F9B5
:103230000790394800683D4908603F48006C5528B0
:1032400011D13E48069034480068FDF7D6F8044690
:103250000699FFF729F9824601232F4A19460220D1
:1032600000F01AFB13E03448006CAA280FD1344850
:1032700006900798FDF7C1F804460699FFF714F980
:103280008246012307AA1946022000F005FB00210F
:103290005046FDF751F904D2002000F03DFB05E057
:1032A00031E08AF0004A012000F036FB2248006C31
:1032B000552813D15046FDF7EEF804460022214B65
:1032C000FDF7FCF802D200201E4902E05046FDF74F
:1032D000E2F80646FDF70AF982460CE01648006C53
:1032E000AA2808D118495046FDF726F901D21648F8
:1032F00000E0504682465046FDF79AF884B22046D8
:1033000000F058FB00BF09B0BDE8F08F14000020AA
:10331000580300202000002018000020D8020020C0
:103320000000C84200408F4000004E401C000020BA
:10333000000050420000F04198030020352F0008A3
:10334000E524000800409A4000C05A4538B50546BB
:103350000C460A490094CA882B460868802100F070
:1033600058FA0649C9880819C11700EB5161C911FB
:10337000A0EBC111014AD18038BD0000DC03002060
:103380002DE9F04706460F464FF0FF0A00244FF0A4
:10339000FF38A1466949CB888A880889802100F0D6
:1033A00027FA84B2092C02DA5046BDE8F087634858
:1033B000408940BB61498A8823460868802100F023
:1033C000DDF90FFA80F8B8F1000F0EDB01205B4940
:1033D0004881A1F80480CB888A880889802100F080
:1033E00007FA09280FDA5046DFE754498988214453
:1033F000C81EC11700EB5161C911A0EBC1114F4AA2
:1034000091805046D1E74D48008960B94B4A918878
:103410001068FFF737FE4949088108460089A04235
:1034200001DD5046C1E74548008944498988084480
:10343000401E80281CDD41480068404B9B88C11815
:103440003E488088C0F18000C2B24846FFF7FFFDC9
:1034500081463A48007A401E384B1B791844803820
:10346000C2B2364801684846FFF7F1FD81460CE0DC
:1034700032480068314B9B88C1183048007A401EA2
:10348000C2B24846FFF7E3FD81462C4B1A89998862
:103490001868FFF7EAFD48453ED12848808827494B
:1034A00009890844802816DD24488088C0F18000FE
:1034B00085B222480068214A928881182A463046FF
:1034C000FCF740FE1D4B1B895A1B1C4B70191968D9
:1034D000FCF738FE09E019480068184B9B88C118B2
:1034E000164802893046FCF72DFE144800893880C2
:1034F000124A91881068FFF7DFFD82460F498988DC
:103500000E4A12898818C11700EB5161C911A0EB4E
:10351000C1110A4A91800AE008498988481CC117EC
:1035200000EB5161C911A0EBC111044A9180002048
:10353000024908814881504637E70000DC0300203B
:10354000044800210160416081600348014908602E
:1035500000207047DC030020E80300202DE9F04F35
:10356000A5B000200490FF20039001E104A905A864
:10357000FFF706FF0390039814287DD008DC10287D
:1035800011D0112879D0122878D0132877D19DE056
:10359000152875D0162874D0FF28F7D14FF0FF30CA
:1035A00025B0BDE8F08F05A8407B4FF07F4101EAD0
:1035B000006005A9097B4FF47F0202EA014108433C
:1035C0009DF81F10121202EA012108439DF81E10F7
:1035D00040EA010405A8407C110401EA006005A945
:1035E000097C120202EA0141084305A9C97B1212B3
:1035F00002EA0121084305A9897B40EA010905A8DF
:10360000407D110401EA006005A9097D120202EA69
:103610000141084305A9C97C121202EA01210843AD
:1036200005A9897C40EA010A2046FCF7F4FE07461A
:103630000022504BFCF772FE0546FCF757FF83460D
:103640004846FCF7E8FE074600224A4BFCF766FEB8
:103650000546FCF74BFF02905046FCF7DCFE0746A0
:103660000022444BFCF75AFE0546FCF73FFF019051
:103670005846DDE9012105E02BE006E023E073E098
:103680002AE056E000F0B6F971E005A8407B4FF063
:103690007F4101EA006005A9097B4FF47F0202EA3D
:1036A000014108439DF81F10121202EA012108434C
:1036B0009DF81E1040EA01042046FCF79EFE0546D8
:1036C00000F0AAF953E000F05DF950E000F042F993
:1036D0004DE0FDF759FD4AE005A9497B4FF07F42D7
:1036E00002EA016105AA127B4FF47F0303EA02425A
:1036F00011439DF81F201B1203EA022211439DF87B
:103700001E2041EA020000BF00EBC00101EB0011E6
:103710000122C2EB8101184A1268D16200EBC0019C
:1037200001EB00110122C2EB81021349CA6000BF04
:103730001DE005A8407B4FF07F4101EA006005A92C
:10374000097B4FF47F0202EA014108439DF81F10F4
:10375000121202EA012108439DF81E1040EA0104FA
:10376000204600F0D3F802E04FF0FF3018E700BF2A
:10377000FCE6000000002440D8020020F0B5054619
:103780000C46002100BF2BE0501890FBF4F604FB20
:1037900016002E5C5018401C90FBF4F704FB170039
:1037A000285C46EA00265018801C90FBF4F704FBC6
:1037B0001700285C46EA00465018C01C90FBF4F73E
:1037C00004FB1700285C46EA0060084EB04205D1B1
:1037D000501890FBF4F604FB1600F0BD481C81B2B3
:1037E000D81E8842D0DC4FF0FF30F6E7535A4859D4
:1037F00030B5044600259A4202DC981A85B202E0F0
:10380000881A184485B2AC4201DD002030BD28463C
:10381000FCE72DE9F04705460E4614461F46DDF845
:10382000208004EB0800B0420FDD301B1FFA80F946
:1038300028194A463946FCF785FCA8EB090207EB34
:1038400009012846FCF77EFC04E028194246394667
:10385000FCF778FCBDE8F08700B585B000BF0C48E8
:10386000806940F004000A4988610846806900F0D8
:103870000400009000BF00BF0120029003200490CC
:103880000420019001A90348FDF720FA05B000BD0E
:103890000010024000080140F8B505460E461746E4
:1038A0001C4600200090A006040E1448144908602D
:1038B00004F10B00C1F805000846067145720A22A2
:1038C0000020FFF7C4FB0090224639469DF8000017
:1038D000FFF7BDFB00900B4B0A2209490A48FEF78F
:1038E00074FC084B224639460748FEF76EFC054B30
:1038F000012269460448FEF768FCF8BD535A48594E
:1039000068040020FFFF0F009802002001490864AE
:10391000704700009803002010B504460B4804705F
:10392000007848B90A4801880020FEF79BFE002174
:103930000C20FEF797FE08E000210846FEF792FEF5
:10394000034801880C20FEF78DFE10BD10000020FA
:103950001200002010B50020074908700022042141
:103960000648FDF75BFB00210548FEF793FA0C21A2
:103970000348FEF78FFA10BD140000200008014034
:103980001803002010B50120074908700122042106
:103990000648FDF743FB00210548FEF74FFA0C21CE
:1039A0000348FEF74BFA10BD140000200008014048
:1039B0001803002010B50446B4F5616F02DD4FF422
:1039C000616000E02046044608480480084800780A
:1039D00028B9064801880020FEF744FE04E00348A9
:1039E00001880C20FEF73EFE10BD000012000020F2
:1039F0001000002010B5074C236C552B03D1A0629A
:103A0000E162226305E0AA2B03D1024C6063A1634B
:103A1000E26310BD980300200649096C552902D1C4
:103A20000449086005E00349096CAA2901D101494C
:103A3000486070479803002000000000000000006C
:103A40000102030406070809000000000102030444
:103A5000703A000800000020240000003030000808
:103A6000943A000824000020540800004030000868
:103A70000024F4000000000010000000010000001D
:103A80000000000000000000000000000000000036
:043A90000000000032
:04000005080000ED02
:00000001FF
